{
  "_format": "hh-sol-artifact-1",
  "contractName": "CardToken",
  "sourceName": "contracts/CardToken.sol",
  "abi": [
    {
      "inputs": [],
      "stateMutability": "nonpayable",
      "type": "constructor"
    },
    {
      "anonymous": false,
      "inputs": [
        {
          "indexed": true,
          "internalType": "address",
          "name": "owner",
          "type": "address"
        },
        {
          "indexed": true,
          "internalType": "address",
          "name": "approved",
          "type": "address"
        },
        {
          "indexed": true,
          "internalType": "uint256",
          "name": "tokenId",
          "type": "uint256"
        }
      ],
      "name": "Approval",
      "type": "event"
    },
    {
      "anonymous": false,
      "inputs": [
        {
          "indexed": true,
          "internalType": "address",
          "name": "owner",
          "type": "address"
        },
        {
          "indexed": true,
          "internalType": "address",
          "name": "operator",
          "type": "address"
        },
        {
          "indexed": false,
          "internalType": "bool",
          "name": "approved",
          "type": "bool"
        }
      ],
      "name": "ApprovalForAll",
      "type": "event"
    },
    {
      "anonymous": false,
      "inputs": [
        {
          "indexed": false,
          "internalType": "uint256",
          "name": "_fromTokenId",
          "type": "uint256"
        },
        {
          "indexed": false,
          "internalType": "uint256",
          "name": "_toTokenId",
          "type": "uint256"
        }
      ],
      "name": "BatchMetadataUpdate",
      "type": "event"
    },
    {
      "anonymous": false,
      "inputs": [
        {
          "indexed": false,
          "internalType": "uint256",
          "name": "_tokenId",
          "type": "uint256"
        }
      ],
      "name": "MetadataUpdate",
      "type": "event"
    },
    {
      "anonymous": false,
      "inputs": [
        {
          "indexed": true,
          "internalType": "address",
          "name": "from",
          "type": "address"
        },
        {
          "indexed": true,
          "internalType": "address",
          "name": "to",
          "type": "address"
        },
        {
          "indexed": true,
          "internalType": "uint256",
          "name": "tokenId",
          "type": "uint256"
        }
      ],
      "name": "Transfer",
      "type": "event"
    },
    {
      "inputs": [
        {
          "internalType": "address",
          "name": "to",
          "type": "address"
        },
        {
          "internalType": "uint256",
          "name": "tokenId",
          "type": "uint256"
        }
      ],
      "name": "approve",
      "outputs": [],
      "stateMutability": "nonpayable",
      "type": "function"
    },
    {
      "inputs": [
        {
          "internalType": "address",
          "name": "owner",
          "type": "address"
        }
      ],
      "name": "balanceOf",
      "outputs": [
        {
          "internalType": "uint256",
          "name": "",
          "type": "uint256"
        }
      ],
      "stateMutability": "view",
      "type": "function"
    },
    {
      "inputs": [
        {
          "internalType": "uint256",
          "name": "tokenId",
          "type": "uint256"
        }
      ],
      "name": "getApproved",
      "outputs": [
        {
          "internalType": "address",
          "name": "",
          "type": "address"
        }
      ],
      "stateMutability": "view",
      "type": "function"
    },
    {
      "inputs": [
        {
          "internalType": "address",
          "name": "owner",
          "type": "address"
        },
        {
          "internalType": "address",
          "name": "operator",
          "type": "address"
        }
      ],
      "name": "isApprovedForAll",
      "outputs": [
        {
          "internalType": "bool",
          "name": "",
          "type": "bool"
        }
      ],
      "stateMutability": "view",
      "type": "function"
    },
    {
      "inputs": [
        {
          "internalType": "address",
          "name": "to",
          "type": "address"
        },
        {
          "internalType": "string",
          "name": "tokenURI",
          "type": "string"
        }
      ],
      "name": "mint",
      "outputs": [
        {
          "internalType": "bool",
          "name": "",
          "type": "bool"
        }
      ],
      "stateMutability": "nonpayable",
      "type": "function"
    },
    {
      "inputs": [],
      "name": "name",
      "outputs": [
        {
          "internalType": "string",
          "name": "",
          "type": "string"
        }
      ],
      "stateMutability": "view",
      "type": "function"
    },
    {
      "inputs": [
        {
          "internalType": "uint256",
          "name": "tokenId",
          "type": "uint256"
        }
      ],
      "name": "ownerOf",
      "outputs": [
        {
          "internalType": "address",
          "name": "",
          "type": "address"
        }
      ],
      "stateMutability": "view",
      "type": "function"
    },
    {
      "inputs": [
        {
          "internalType": "address",
          "name": "from",
          "type": "address"
        },
        {
          "internalType": "address",
          "name": "to",
          "type": "address"
        },
        {
          "internalType": "uint256",
          "name": "tokenId",
          "type": "uint256"
        }
      ],
      "name": "safeTransferFrom",
      "outputs": [],
      "stateMutability": "nonpayable",
      "type": "function"
    },
    {
      "inputs": [
        {
          "internalType": "address",
          "name": "from",
          "type": "address"
        },
        {
          "internalType": "address",
          "name": "to",
          "type": "address"
        },
        {
          "internalType": "uint256",
          "name": "tokenId",
          "type": "uint256"
        },
        {
          "internalType": "bytes",
          "name": "data",
          "type": "bytes"
        }
      ],
      "name": "safeTransferFrom",
      "outputs": [],
      "stateMutability": "nonpayable",
      "type": "function"
    },
    {
      "inputs": [
        {
          "internalType": "address",
          "name": "operator",
          "type": "address"
        },
        {
          "internalType": "bool",
          "name": "approved",
          "type": "bool"
        }
      ],
      "name": "setApprovalForAll",
      "outputs": [],
      "stateMutability": "nonpayable",
      "type": "function"
    },
    {
      "inputs": [
        {
          "internalType": "bytes4",
          "name": "interfaceId",
          "type": "bytes4"
        }
      ],
      "name": "supportsInterface",
      "outputs": [
        {
          "internalType": "bool",
          "name": "",
          "type": "bool"
        }
      ],
      "stateMutability": "view",
      "type": "function"
    },
    {
      "inputs": [],
      "name": "symbol",
      "outputs": [
        {
          "internalType": "string",
          "name": "",
          "type": "string"
        }
      ],
      "stateMutability": "view",
      "type": "function"
    },
    {
      "inputs": [
        {
          "internalType": "uint256",
          "name": "tokenId",
          "type": "uint256"
        }
      ],
      "name": "tokenURI",
      "outputs": [
        {
          "internalType": "string",
          "name": "",
          "type": "string"
        }
      ],
      "stateMutability": "view",
      "type": "function"
    },
    {
      "inputs": [
        {
          "internalType": "address",
          "name": "from",
          "type": "address"
        },
        {
          "internalType": "address",
          "name": "to",
          "type": "address"
        },
        {
          "internalType": "uint256",
          "name": "tokenId",
          "type": "uint256"
        }
      ],
      "name": "transferFrom",
      "outputs": [],
      "stateMutability": "nonpayable",
      "type": "function"
    }
  ],
  "bytecode": "0x60806040523480156200001157600080fd5b506040518060400160405280600a81526020017f4361726420546f6b656e000000000000000000000000000000000000000000008152506040518060400160405280600381526020017f4344540000000000000000000000000000000000000000000000000000000000815250816000908051906020019062000096929190620000b8565b508060019080519060200190620000af929190620000b8565b505050620001cd565b828054620000c69062000168565b90600052602060002090601f016020900481019282620000ea576000855562000136565b82601f106200010557805160ff191683800117855562000136565b8280016001018555821562000136579182015b828111156200013557825182559160200191906001019062000118565b5b50905062000145919062000149565b5090565b5b80821115620001645760008160009055506001016200014a565b5090565b600060028204905060018216806200018157607f821691505b602082108114156200019857620001976200019e565b5b50919050565b7f4e487b7100000000000000000000000000000000000000000000000000000000600052602260045260246000fd5b6129e580620001dd6000396000f3fe608060405234801561001057600080fd5b50600436106100ea5760003560e01c806370a082311161008c578063b88d4fde11610066578063b88d4fde1461025b578063c87b56dd14610277578063d0def521146102a7578063e985e9c5146102d7576100ea565b806370a08231146101f157806395d89b4114610221578063a22cb4651461023f576100ea565b8063095ea7b3116100c8578063095ea7b31461016d57806323b872dd1461018957806342842e0e146101a55780636352211e146101c1576100ea565b806301ffc9a7146100ef57806306fdde031461011f578063081812fc1461013d575b600080fd5b61010960048036038101906101049190611e93565b610307565b604051610116919061220d565b60405180910390f35b610127610368565b6040516101349190612228565b60405180910390f35b61015760048036038101906101529190611ee5565b6103fa565b60405161016491906121a6565b60405180910390f35b61018760048036038101906101829190611e57565b610440565b005b6101a3600480360381019061019e9190611cfd565b610558565b005b6101bf60048036038101906101ba9190611cfd565b6105b8565b005b6101db60048036038101906101d69190611ee5565b6105d8565b6040516101e891906121a6565b60405180910390f35b61020b60048036038101906102069190611c98565b61065f565b60405161021891906123ca565b60405180910390f35b610229610717565b6040516102369190612228565b60405180910390f35b61025960048036038101906102549190611dc7565b6107a9565b005b61027560048036038101906102709190611d4c565b6107bf565b005b610291600480360381019061028c9190611ee5565b610821565b60405161029e9190612228565b60405180910390f35b6102c160048036038101906102bc9190611e03565b610934565b6040516102ce919061220d565b60405180910390f35b6102f160048036038101906102ec9190611cc1565b61096d565b6040516102fe919061220d565b60405180910390f35b6000634906490660e01b7bffffffffffffffffffffffffffffffffffffffffffffffffffffffff1916827bffffffffffffffffffffffffffffffffffffffffffffffffffffffff19161480610361575061036082610a01565b5b9050919050565b60606000805461037790612565565b80601f01602080910402602001604051908101604052809291908181526020018280546103a390612565565b80156103f05780601f106103c5576101008083540402835291602001916103f0565b820191906000526020600020905b8154815290600101906020018083116103d357829003601f168201915b5050505050905090565b600061040582610ae3565b6004600083815260200190815260200160002060009054906101000a900473ffffffffffffffffffffffffffffffffffffffff169050919050565b600061044b826105d8565b90508073ffffffffffffffffffffffffffffffffffffffff168373ffffffffffffffffffffffffffffffffffffffff1614156104bc576040517f08c379a00000000000000000000000000000000000000000000000000000000081526004016104b39061238a565b60405180910390fd5b8073ffffffffffffffffffffffffffffffffffffffff166104db610b2e565b73ffffffffffffffffffffffffffffffffffffffff16148061050a575061050981610504610b2e565b61096d565b5b610549576040517f08c379a0000000000000000000000000000000000000000000000000000000008152600401610540906123aa565b60405180910390fd5b6105538383610b36565b505050565b610569610563610b2e565b82610bef565b6105a8576040517f08c379a000000000000000000000000000000000000000000000000000000000815260040161059f9061224a565b60405180910390fd5b6105b3838383610c84565b505050565b6105d3838383604051806020016040528060008152506107bf565b505050565b6000806105e483610f7e565b9050600073ffffffffffffffffffffffffffffffffffffffff168173ffffffffffffffffffffffffffffffffffffffff161415610656576040517f08c379a000000000000000000000000000000000000000000000000000000000815260040161064d9061236a565b60405180910390fd5b80915050919050565b60008073ffffffffffffffffffffffffffffffffffffffff168273ffffffffffffffffffffffffffffffffffffffff1614156106d0576040517f08c379a00000000000000000000000000000000000000000000000000000000081526004016106c79061230a565b60405180910390fd5b600360008373ffffffffffffffffffffffffffffffffffffffff1673ffffffffffffffffffffffffffffffffffffffff168152602001908152602001600020549050919050565b60606001805461072690612565565b80601f016020809104026020016040519081016040528092919081815260200182805461075290612565565b801561079f5780601f106107745761010080835404028352916020019161079f565b820191906000526020600020905b81548152906001019060200180831161078257829003601f168201915b5050505050905090565b6107bb6107b4610b2e565b8383610fbb565b5050565b6107d06107ca610b2e565b83610bef565b61080f576040517f08c379a00000000000000000000000000000000000000000000000000000000081526004016108069061224a565b60405180910390fd5b61081b84848484611128565b50505050565b606061082c82610ae3565b600060066000848152602001908152602001600020805461084c90612565565b80601f016020809104026020016040519081016040528092919081815260200182805461087890612565565b80156108c55780601f1061089a576101008083540402835291602001916108c5565b820191906000526020600020905b8154815290600101906020018083116108a857829003601f168201915b5050505050905060006108d6611184565b90506000815114156108ec57819250505061092f565b600082511115610921578082604051602001610909929190612182565b6040516020818303038152906040529250505061092f565b61092a8461119b565b925050505b919050565b60006109406007611203565b600061094c6007611219565b90506109588482611227565b6109628184611445565b600191505092915050565b6000600560008473ffffffffffffffffffffffffffffffffffffffff1673ffffffffffffffffffffffffffffffffffffffff16815260200190815260200160002060008373ffffffffffffffffffffffffffffffffffffffff1673ffffffffffffffffffffffffffffffffffffffff16815260200190815260200160002060009054906101000a900460ff16905092915050565b60007f80ac58cd000000000000000000000000000000000000000000000000000000007bffffffffffffffffffffffffffffffffffffffffffffffffffffffff1916827bffffffffffffffffffffffffffffffffffffffffffffffffffffffff19161480610acc57507f5b5e139f000000000000000000000000000000000000000000000000000000007bffffffffffffffffffffffffffffffffffffffffffffffffffffffff1916827bffffffffffffffffffffffffffffffffffffffffffffffffffffffff1916145b80610adc5750610adb826114f0565b5b9050919050565b610aec8161155a565b610b2b576040517f08c379a0000000000000000000000000000000000000000000000000000000008152600401610b229061236a565b60405180910390fd5b50565b600033905090565b816004600083815260200190815260200160002060006101000a81548173ffffffffffffffffffffffffffffffffffffffff021916908373ffffffffffffffffffffffffffffffffffffffff160217905550808273ffffffffffffffffffffffffffffffffffffffff16610ba9836105d8565b73ffffffffffffffffffffffffffffffffffffffff167f8c5be1e5ebec7d5bd14f71427d1e84f3dd0314c0f7b2291e5b200ac8c7c3b92560405160405180910390a45050565b600080610bfb836105d8565b90508073ffffffffffffffffffffffffffffffffffffffff168473ffffffffffffffffffffffffffffffffffffffff161480610c3d5750610c3c818561096d565b5b80610c7b57508373ffffffffffffffffffffffffffffffffffffffff16610c63846103fa565b73ffffffffffffffffffffffffffffffffffffffff16145b91505092915050565b8273ffffffffffffffffffffffffffffffffffffffff16610ca4826105d8565b73ffffffffffffffffffffffffffffffffffffffff1614610cfa576040517f08c379a0000000000000000000000000000000000000000000000000000000008152600401610cf19061228a565b60405180910390fd5b600073ffffffffffffffffffffffffffffffffffffffff168273ffffffffffffffffffffffffffffffffffffffff161415610d6a576040517f08c379a0000000000000000000000000000000000000000000000000000000008152600401610d61906122ca565b60405180910390fd5b610d77838383600161159b565b8273ffffffffffffffffffffffffffffffffffffffff16610d97826105d8565b73ffffffffffffffffffffffffffffffffffffffff1614610ded576040517f08c379a0000000000000000000000000000000000000000000000000000000008152600401610de49061228a565b60405180910390fd5b6004600082815260200190815260200160002060006101000a81549073ffffffffffffffffffffffffffffffffffffffff02191690556001600360008573ffffffffffffffffffffffffffffffffffffffff1673ffffffffffffffffffffffffffffffffffffffff168152602001908152602001600020600082825403925050819055506001600360008473ffffffffffffffffffffffffffffffffffffffff1673ffffffffffffffffffffffffffffffffffffffff16815260200190815260200160002060008282540192505081905550816002600083815260200190815260200160002060006101000a81548173ffffffffffffffffffffffffffffffffffffffff021916908373ffffffffffffffffffffffffffffffffffffffff160217905550808273ffffffffffffffffffffffffffffffffffffffff168473ffffffffffffffffffffffffffffffffffffffff167fddf252ad1be2c89b69c2b068fc378daa952ba7f163c4a11628f55a4df523b3ef60405160405180910390a4610f7983838360016115a1565b505050565b60006002600083815260200190815260200160002060009054906101000a900473ffffffffffffffffffffffffffffffffffffffff169050919050565b8173ffffffffffffffffffffffffffffffffffffffff168373ffffffffffffffffffffffffffffffffffffffff16141561102a576040517f08c379a0000000000000000000000000000000000000000000000000000000008152600401611021906122ea565b60405180910390fd5b80600560008573ffffffffffffffffffffffffffffffffffffffff1673ffffffffffffffffffffffffffffffffffffffff16815260200190815260200160002060008473ffffffffffffffffffffffffffffffffffffffff1673ffffffffffffffffffffffffffffffffffffffff16815260200190815260200160002060006101000a81548160ff0219169083151502179055508173ffffffffffffffffffffffffffffffffffffffff168373ffffffffffffffffffffffffffffffffffffffff167f17307eab39ab6107e8899845ad3d59bd9653f200f220920489ca2b5937696c318360405161111b919061220d565b60405180910390a3505050565b611133848484610c84565b61113f848484846115a7565b61117e576040517f08c379a00000000000000000000000000000000000000000000000000000000081526004016111759061226a565b60405180910390fd5b50505050565b606060405180602001604052806000815250905090565b60606111a682610ae3565b60006111b0611184565b905060008151116111d057604051806020016040528060008152506111fb565b806111da8461173e565b6040516020016111eb929190612182565b6040516020818303038152906040525b915050919050565b6001816000016000828254019250508190555050565b600081600001549050919050565b600073ffffffffffffffffffffffffffffffffffffffff168273ffffffffffffffffffffffffffffffffffffffff161415611297576040517f08c379a000000000000000000000000000000000000000000000000000000000815260040161128e9061234a565b60405180910390fd5b6112a08161155a565b156112e0576040517f08c379a00000000000000000000000000000000000000000000000000000000081526004016112d7906122aa565b60405180910390fd5b6112ee60008383600161159b565b6112f78161155a565b15611337576040517f08c379a000000000000000000000000000000000000000000000000000000000815260040161132e906122aa565b60405180910390fd5b6001600360008473ffffffffffffffffffffffffffffffffffffffff1673ffffffffffffffffffffffffffffffffffffffff16815260200190815260200160002060008282540192505081905550816002600083815260200190815260200160002060006101000a81548173ffffffffffffffffffffffffffffffffffffffff021916908373ffffffffffffffffffffffffffffffffffffffff160217905550808273ffffffffffffffffffffffffffffffffffffffff16600073ffffffffffffffffffffffffffffffffffffffff167fddf252ad1be2c89b69c2b068fc378daa952ba7f163c4a11628f55a4df523b3ef60405160405180910390a46114416000838360016115a1565b5050565b61144e8261155a565b61148d576040517f08c379a00000000000000000000000000000000000000000000000000000000081526004016114849061232a565b60405180910390fd5b806006600084815260200190815260200160002090805190602001906114b4929190611abc565b507ff8e1a15aba9398e019f0b49df1a4fde98ee17ae345cb5f6b5e2c27f5033e8ce7826040516114e491906123ca565b60405180910390a15050565b60007f01ffc9a7000000000000000000000000000000000000000000000000000000007bffffffffffffffffffffffffffffffffffffffffffffffffffffffff1916827bffffffffffffffffffffffffffffffffffffffffffffffffffffffff1916149050919050565b60008073ffffffffffffffffffffffffffffffffffffffff1661157c83610f7e565b73ffffffffffffffffffffffffffffffffffffffff1614159050919050565b50505050565b50505050565b60006115c88473ffffffffffffffffffffffffffffffffffffffff16611862565b15611731578373ffffffffffffffffffffffffffffffffffffffff1663150b7a026115f1610b2e565b8786866040518563ffffffff1660e01b815260040161161394939291906121c1565b602060405180830381600087803b15801561162d57600080fd5b505af192505050801561165e57506040513d601f19601f8201168201806040525081019061165b9190611ebc565b60015b6116e1573d806000811461168e576040519150601f19603f3d011682016040523d82523d6000602084013e611693565b606091505b506000815114156116d9576040517f08c379a00000000000000000000000000000000000000000000000000000000081526004016116d09061226a565b60405180910390fd5b805181602001fd5b63150b7a0260e01b7bffffffffffffffffffffffffffffffffffffffffffffffffffffffff1916817bffffffffffffffffffffffffffffffffffffffffffffffffffffffff191614915050611736565b600190505b949350505050565b60606000600161174d84611885565b01905060008167ffffffffffffffff811115611792577f4e487b7100000000000000000000000000000000000000000000000000000000600052604160045260246000fd5b6040519080825280601f01601f1916602001820160405280156117c45781602001600182028036833780820191505090505b509050600082602001820190505b600115611857578080600190039150507f3031323334353637383961626364656600000000000000000000000000000000600a86061a8153600a8581611841577f4e487b7100000000000000000000000000000000000000000000000000000000600052601260045260246000fd5b049450600085141561185257611857565b6117d2565b819350505050919050565b6000808273ffffffffffffffffffffffffffffffffffffffff163b119050919050565b600080600090507a184f03e93ff9f4daa797ed6e38ed64bf6a1f0100000000000000008310611909577a184f03e93ff9f4daa797ed6e38ed64bf6a1f01000000000000000083816118ff577f4e487b7100000000000000000000000000000000000000000000000000000000600052601260045260246000fd5b0492506040810190505b6d04ee2d6d415b85acef8100000000831061196c576d04ee2d6d415b85acef81000000008381611962577f4e487b7100000000000000000000000000000000000000000000000000000000600052601260045260246000fd5b0492506020810190505b662386f26fc1000083106119c157662386f26fc1000083816119b7577f4e487b7100000000000000000000000000000000000000000000000000000000600052601260045260246000fd5b0492506010810190505b6305f5e1008310611a10576305f5e1008381611a06577f4e487b7100000000000000000000000000000000000000000000000000000000600052601260045260246000fd5b0492506008810190505b6127108310611a5b576127108381611a51577f4e487b7100000000000000000000000000000000000000000000000000000000600052601260045260246000fd5b0492506004810190505b60648310611aa45760648381611a9a577f4e487b7100000000000000000000000000000000000000000000000000000000600052601260045260246000fd5b0492506002810190505b600a8310611ab3576001810190505b80915050919050565b828054611ac890612565565b90600052602060002090601f016020900481019282611aea5760008555611b31565b82601f10611b0357805160ff1916838001178555611b31565b82800160010185558215611b31579182015b82811115611b30578251825591602001919060010190611b15565b5b509050611b3e9190611b42565b5090565b5b80821115611b5b576000816000905550600101611b43565b5090565b6000611b72611b6d8461240a565b6123e5565b905082815260208101848484011115611b8a57600080fd5b611b95848285612523565b509392505050565b6000611bb0611bab8461243b565b6123e5565b905082815260208101848484011115611bc857600080fd5b611bd3848285612523565b509392505050565b600081359050611bea81612953565b92915050565b600081359050611bff8161296a565b92915050565b600081359050611c1481612981565b92915050565b600081519050611c2981612981565b92915050565b600082601f830112611c4057600080fd5b8135611c50848260208601611b5f565b91505092915050565b600082601f830112611c6a57600080fd5b8135611c7a848260208601611b9d565b91505092915050565b600081359050611c9281612998565b92915050565b600060208284031215611caa57600080fd5b6000611cb884828501611bdb565b91505092915050565b60008060408385031215611cd457600080fd5b6000611ce285828601611bdb565b9250506020611cf385828601611bdb565b9150509250929050565b600080600060608486031215611d1257600080fd5b6000611d2086828701611bdb565b9350506020611d3186828701611bdb565b9250506040611d4286828701611c83565b9150509250925092565b60008060008060808587031215611d6257600080fd5b6000611d7087828801611bdb565b9450506020611d8187828801611bdb565b9350506040611d9287828801611c83565b925050606085013567ffffffffffffffff811115611daf57600080fd5b611dbb87828801611c2f565b91505092959194509250565b60008060408385031215611dda57600080fd5b6000611de885828601611bdb565b9250506020611df985828601611bf0565b9150509250929050565b60008060408385031215611e1657600080fd5b6000611e2485828601611bdb565b925050602083013567ffffffffffffffff811115611e4157600080fd5b611e4d85828601611c59565b9150509250929050565b60008060408385031215611e6a57600080fd5b6000611e7885828601611bdb565b9250506020611e8985828601611c83565b9150509250929050565b600060208284031215611ea557600080fd5b6000611eb384828501611c05565b91505092915050565b600060208284031215611ece57600080fd5b6000611edc84828501611c1a565b91505092915050565b600060208284031215611ef757600080fd5b6000611f0584828501611c83565b91505092915050565b611f17816124af565b82525050565b611f26816124c1565b82525050565b6000611f378261246c565b611f418185612482565b9350611f51818560208601612532565b611f5a81612626565b840191505092915050565b6000611f7082612477565b611f7a8185612493565b9350611f8a818560208601612532565b611f9381612626565b840191505092915050565b6000611fa982612477565b611fb381856124a4565b9350611fc3818560208601612532565b80840191505092915050565b6000611fdc602d83612493565b9150611fe782612637565b604082019050919050565b6000611fff603283612493565b915061200a82612686565b604082019050919050565b6000612022602583612493565b915061202d826126d5565b604082019050919050565b6000612045601c83612493565b915061205082612724565b602082019050919050565b6000612068602483612493565b91506120738261274d565b604082019050919050565b600061208b601983612493565b91506120968261279c565b602082019050919050565b60006120ae602983612493565b91506120b9826127c5565b604082019050919050565b60006120d1602e83612493565b91506120dc82612814565b604082019050919050565b60006120f4602083612493565b91506120ff82612863565b602082019050919050565b6000612117601883612493565b91506121228261288c565b602082019050919050565b600061213a602183612493565b9150612145826128b5565b604082019050919050565b600061215d603d83612493565b915061216882612904565b604082019050919050565b61217c81612519565b82525050565b600061218e8285611f9e565b915061219a8284611f9e565b91508190509392505050565b60006020820190506121bb6000830184611f0e565b92915050565b60006080820190506121d66000830187611f0e565b6121e36020830186611f0e565b6121f06040830185612173565b81810360608301526122028184611f2c565b905095945050505050565b60006020820190506122226000830184611f1d565b92915050565b600060208201905081810360008301526122428184611f65565b905092915050565b6000602082019050818103600083015261226381611fcf565b9050919050565b6000602082019050818103600083015261228381611ff2565b9050919050565b600060208201905081810360008301526122a381612015565b9050919050565b600060208201905081810360008301526122c381612038565b9050919050565b600060208201905081810360008301526122e38161205b565b9050919050565b600060208201905081810360008301526123038161207e565b9050919050565b60006020820190508181036000830152612323816120a1565b9050919050565b60006020820190508181036000830152612343816120c4565b9050919050565b60006020820190508181036000830152612363816120e7565b9050919050565b600060208201905081810360008301526123838161210a565b9050919050565b600060208201905081810360008301526123a38161212d565b9050919050565b600060208201905081810360008301526123c381612150565b9050919050565b60006020820190506123df6000830184612173565b92915050565b60006123ef612400565b90506123fb8282612597565b919050565b6000604051905090565b600067ffffffffffffffff821115612425576124246125f7565b5b61242e82612626565b9050602081019050919050565b600067ffffffffffffffff821115612456576124556125f7565b5b61245f82612626565b9050602081019050919050565b600081519050919050565b600081519050919050565b600082825260208201905092915050565b600082825260208201905092915050565b600081905092915050565b60006124ba826124f9565b9050919050565b60008115159050919050565b60007fffffffff0000000000000000000000000000000000000000000000000000000082169050919050565b600073ffffffffffffffffffffffffffffffffffffffff82169050919050565b6000819050919050565b82818337600083830152505050565b60005b83811015612550578082015181840152602081019050612535565b8381111561255f576000848401525b50505050565b6000600282049050600182168061257d57607f821691505b60208210811415612591576125906125c8565b5b50919050565b6125a082612626565b810181811067ffffffffffffffff821117156125bf576125be6125f7565b5b80604052505050565b7f4e487b7100000000000000000000000000000000000000000000000000000000600052602260045260246000fd5b7f4e487b7100000000000000000000000000000000000000000000000000000000600052604160045260246000fd5b6000601f19601f8301169050919050565b7f4552433732313a2063616c6c6572206973206e6f7420746f6b656e206f776e6560008201527f72206f7220617070726f76656400000000000000000000000000000000000000602082015250565b7f4552433732313a207472616e7366657220746f206e6f6e20455243373231526560008201527f63656976657220696d706c656d656e7465720000000000000000000000000000602082015250565b7f4552433732313a207472616e736665722066726f6d20696e636f72726563742060008201527f6f776e6572000000000000000000000000000000000000000000000000000000602082015250565b7f4552433732313a20746f6b656e20616c7265616479206d696e74656400000000600082015250565b7f4552433732313a207472616e7366657220746f20746865207a65726f2061646460008201527f7265737300000000000000000000000000000000000000000000000000000000602082015250565b7f4552433732313a20617070726f766520746f2063616c6c657200000000000000600082015250565b7f4552433732313a2061646472657373207a65726f206973206e6f74206120766160008201527f6c6964206f776e65720000000000000000000000000000000000000000000000602082015250565b7f45524337323155524953746f726167653a2055524920736574206f66206e6f6e60008201527f6578697374656e7420746f6b656e000000000000000000000000000000000000602082015250565b7f4552433732313a206d696e7420746f20746865207a65726f2061646472657373600082015250565b7f4552433732313a20696e76616c696420746f6b656e2049440000000000000000600082015250565b7f4552433732313a20617070726f76616c20746f2063757272656e74206f776e6560008201527f7200000000000000000000000000000000000000000000000000000000000000602082015250565b7f4552433732313a20617070726f76652063616c6c6572206973206e6f7420746f60008201527f6b656e206f776e6572206f7220617070726f76656420666f7220616c6c000000602082015250565b61295c816124af565b811461296757600080fd5b50565b612973816124c1565b811461297e57600080fd5b50565b61298a816124cd565b811461299557600080fd5b50565b6129a181612519565b81146129ac57600080fd5b5056fea26469706673582212204e03e3e6153295a3a485dd9c5364be3b2e996d6597ced03a9817ddc3fdb3189164736f6c63430008040033",
  "linkReferences": {},
  "deployedLinkReferences": {}
}